{
  "contractName": "Applicants",
  "abi": [
    {
      "anonymous": false,
      "inputs": [
        {
          "indexed": true,
          "internalType": "address",
          "name": "_address",
          "type": "address"
        }
      ],
      "name": "ApplicantsAppend",
      "type": "event"
    },
    {
      "constant": false,
      "inputs": [
        {
          "internalType": "string",
          "name": "_fileName",
          "type": "string"
        },
        {
          "internalType": "address",
          "name": "_address",
          "type": "address"
        }
      ],
      "name": "updateIdentification",
      "outputs": [
        {
          "internalType": "bool",
          "name": "",
          "type": "bool"
        },
        {
          "internalType": "string",
          "name": "",
          "type": "string"
        }
      ],
      "payable": false,
      "stateMutability": "nonpayable",
      "type": "function"
    },
    {
      "constant": true,
      "inputs": [
        {
          "internalType": "address",
          "name": "_address",
          "type": "address"
        },
        {
          "internalType": "string",
          "name": "_fileName",
          "type": "string"
        },
        {
          "internalType": "string",
          "name": "_administrativeCode",
          "type": "string"
        }
      ],
      "name": "identificationFound",
      "outputs": [
        {
          "internalType": "bool",
          "name": "",
          "type": "bool"
        },
        {
          "internalType": "uint256",
          "name": "",
          "type": "uint256"
        }
      ],
      "payable": false,
      "stateMutability": "view",
      "type": "function"
    },
    {
      "constant": true,
      "inputs": [
        {
          "internalType": "address",
          "name": "_address",
          "type": "address"
        },
        {
          "internalType": "string",
          "name": "_fileName",
          "type": "string"
        },
        {
          "internalType": "string",
          "name": "_administrativeCode",
          "type": "string"
        }
      ],
      "name": "getIdentificationDetails",
      "outputs": [
        {
          "components": [
            {
              "internalType": "string",
              "name": "filename",
              "type": "string"
            },
            {
              "internalType": "bool",
              "name": "exists",
              "type": "bool"
            }
          ],
          "internalType": "struct Applicants.Identification",
          "name": "",
          "type": "tuple"
        }
      ],
      "payable": false,
      "stateMutability": "view",
      "type": "function"
    },
    {
      "constant": false,
      "inputs": [
        {
          "internalType": "address",
          "name": "_address",
          "type": "address"
        },
        {
          "internalType": "string",
          "name": "_name",
          "type": "string"
        },
        {
          "internalType": "string",
          "name": "_physicalAddress",
          "type": "string"
        },
        {
          "internalType": "string",
          "name": "_nationality",
          "type": "string"
        },
        {
          "internalType": "string",
          "name": "_administrativeCode",
          "type": "string"
        }
      ],
      "name": "setApplicant",
      "outputs": [
        {
          "internalType": "bool",
          "name": "",
          "type": "bool"
        }
      ],
      "payable": false,
      "stateMutability": "nonpayable",
      "type": "function"
    },
    {
      "constant": true,
      "inputs": [
        {
          "internalType": "string",
          "name": "_administrativeCode",
          "type": "string"
        }
      ],
      "name": "getApplicants",
      "outputs": [
        {
          "internalType": "address[]",
          "name": "",
          "type": "address[]"
        }
      ],
      "payable": false,
      "stateMutability": "view",
      "type": "function"
    },
    {
      "constant": true,
      "inputs": [
        {
          "internalType": "address",
          "name": "_address",
          "type": "address"
        },
        {
          "internalType": "string",
          "name": "_administrativeCode",
          "type": "string"
        }
      ],
      "name": "getApplicantProfile",
      "outputs": [
        {
          "components": [
            {
              "internalType": "string",
              "name": "name",
              "type": "string"
            },
            {
              "internalType": "uint256",
              "name": "nameChanges",
              "type": "uint256"
            },
            {
              "internalType": "string",
              "name": "physicalAddress",
              "type": "string"
            },
            {
              "internalType": "string",
              "name": "nationality",
              "type": "string"
            },
            {
              "internalType": "bool",
              "name": "exists",
              "type": "bool"
            },
            {
              "internalType": "string[]",
              "name": "experienceIdentifiers",
              "type": "string[]"
            },
            {
              "internalType": "string[]",
              "name": "skillIdentifiers",
              "type": "string[]"
            },
            {
              "internalType": "string[]",
              "name": "identificationIdentifiers",
              "type": "string[]"
            },
            {
              "components": [
                {
                  "internalType": "string",
                  "name": "currency",
                  "type": "string"
                },
                {
                  "internalType": "uint256",
                  "name": "amount",
                  "type": "uint256"
                }
              ],
              "internalType": "struct Applicants.Stipend",
              "name": "salaryFlooring",
              "type": "tuple"
            },
            {
              "components": [
                {
                  "internalType": "string",
                  "name": "currency",
                  "type": "string"
                },
                {
                  "internalType": "uint256",
                  "name": "amount",
                  "type": "uint256"
                }
              ],
              "internalType": "struct Applicants.Stipend",
              "name": "salaryCeiling",
              "type": "tuple"
            }
          ],
          "internalType": "struct Applicants.Applicant",
          "name": "",
          "type": "tuple"
        }
      ],
      "payable": false,
      "stateMutability": "view",
      "type": "function"
    },
    {
      "constant": false,
      "inputs": [
        {
          "internalType": "address",
          "name": "_address",
          "type": "address"
        },
        {
          "internalType": "string",
          "name": "_name",
          "type": "string"
        }
      ],
      "name": "updateName",
      "outputs": [
        {
          "internalType": "bool",
          "name": "",
          "type": "bool"
        },
        {
          "internalType": "uint256",
          "name": "",
          "type": "uint256"
        },
        {
          "internalType": "string",
          "name": "",
          "type": "string"
        }
      ],
      "payable": false,
      "stateMutability": "nonpayable",
      "type": "function"
    },
    {
      "constant": false,
      "inputs": [
        {
          "internalType": "address",
          "name": "_address",
          "type": "address"
        },
        {
          "internalType": "string",
          "name": "_physicalAddress",
          "type": "string"
        }
      ],
      "name": "updateAddress",
      "outputs": [
        {
          "internalType": "bool",
          "name": "",
          "type": "bool"
        },
        {
          "internalType": "string",
          "name": "",
          "type": "string"
        }
      ],
      "payable": false,
      "stateMutability": "nonpayable",
      "type": "function"
    },
    {
      "constant": false,
      "inputs": [
        {
          "internalType": "address",
          "name": "_address",
          "type": "address"
        },
        {
          "internalType": "string",
          "name": "_nationality",
          "type": "string"
        }
      ],
      "name": "updateNationality",
      "outputs": [
        {
          "internalType": "bool",
          "name": "",
          "type": "bool"
        },
        {
          "internalType": "string",
          "name": "",
          "type": "string"
        }
      ],
      "payable": false,
      "stateMutability": "nonpayable",
      "type": "function"
    },
    {
      "constant": false,
      "inputs": [
        {
          "internalType": "address",
          "name": "_address",
          "type": "address"
        },
        {
          "internalType": "string",
          "name": "_currency",
          "type": "string"
        },
        {
          "internalType": "uint256",
          "name": "_amount",
          "type": "uint256"
        }
      ],
      "name": "setSalaryFlooring",
      "outputs": [
        {
          "internalType": "bool",
          "name": "",
          "type": "bool"
        },
        {
          "internalType": "string",
          "name": "",
          "type": "string"
        }
      ],
      "payable": false,
      "stateMutability": "nonpayable",
      "type": "function"
    },
    {
      "constant": false,
      "inputs": [
        {
          "internalType": "address",
          "name": "_address",
          "type": "address"
        },
        {
          "internalType": "string",
          "name": "_currency",
          "type": "string"
        },
        {
          "internalType": "uint256",
          "name": "_amount",
          "type": "uint256"
        }
      ],
      "name": "setSalaryCeiling",
      "outputs": [
        {
          "internalType": "bool",
          "name": "",
          "type": "bool"
        },
        {
          "internalType": "string",
          "name": "",
          "type": "string"
        }
      ],
      "payable": false,
      "stateMutability": "nonpayable",
      "type": "function"
    },
    {
      "constant": true,
      "inputs": [
        {
          "internalType": "address",
          "name": "_address",
          "type": "address"
        },
        {
          "internalType": "string",
          "name": "_skillName",
          "type": "string"
        },
        {
          "internalType": "string",
          "name": "_administrativeCode",
          "type": "string"
        }
      ],
      "name": "getSkillDetails",
      "outputs": [
        {
          "components": [
            {
              "internalType": "string",
              "name": "name",
              "type": "string"
            },
            {
              "internalType": "enum Applicants.SkillLevel",
              "name": "level",
              "type": "uint8"
            },
            {
              "internalType": "bool",
              "name": "exists",
              "type": "bool"
            }
          ],
          "internalType": "struct Applicants.Skill",
          "name": "",
          "type": "tuple"
        }
      ],
      "payable": false,
      "stateMutability": "view",
      "type": "function"
    },
    {
      "constant": false,
      "inputs": [
        {
          "internalType": "address",
          "name": "_address",
          "type": "address"
        },
        {
          "internalType": "string",
          "name": "_skillName",
          "type": "string"
        },
        {
          "internalType": "uint256",
          "name": "_level",
          "type": "uint256"
        }
      ],
      "name": "updateSkill",
      "outputs": [
        {
          "internalType": "bool",
          "name": "",
          "type": "bool"
        },
        {
          "internalType": "string",
          "name": "",
          "type": "string"
        }
      ],
      "payable": false,
      "stateMutability": "nonpayable",
      "type": "function"
    },
    {
      "constant": true,
      "inputs": [
        {
          "internalType": "address",
          "name": "_address",
          "type": "address"
        },
        {
          "internalType": "string",
          "name": "_skillName",
          "type": "string"
        },
        {
          "internalType": "string",
          "name": "_administrativeCode",
          "type": "string"
        }
      ],
      "name": "skillFound",
      "outputs": [
        {
          "internalType": "bool",
          "name": "",
          "type": "bool"
        },
        {
          "internalType": "uint256",
          "name": "",
          "type": "uint256"
        }
      ],
      "payable": false,
      "stateMutability": "view",
      "type": "function"
    },
    {
      "constant": false,
      "inputs": [
        {
          "internalType": "address",
          "name": "_address",
          "type": "address"
        },
        {
          "internalType": "string",
          "name": "_skillName",
          "type": "string"
        }
      ],
      "name": "deleteSkill",
      "outputs": [
        {
          "internalType": "bool",
          "name": "",
          "type": "bool"
        },
        {
          "internalType": "string",
          "name": "",
          "type": "string"
        }
      ],
      "payable": false,
      "stateMutability": "nonpayable",
      "type": "function"
    },
    {
      "constant": true,
      "inputs": [
        {
          "internalType": "address",
          "name": "_address",
          "type": "address"
        },
        {
          "internalType": "string",
          "name": "_experienceName",
          "type": "string"
        },
        {
          "internalType": "string",
          "name": "_administrativeCode",
          "type": "string"
        }
      ],
      "name": "getExperienceDetails",
      "outputs": [
        {
          "components": [
            {
              "internalType": "string",
              "name": "positionTitle",
              "type": "string"
            },
            {
              "internalType": "string",
              "name": "companyName",
              "type": "string"
            },
            {
              "components": [
                {
                  "internalType": "uint256",
                  "name": "year",
                  "type": "uint256"
                },
                {
                  "internalType": "enum Applicants.ExpDurationMonth",
                  "name": "ExpDurationMonth",
                  "type": "uint8"
                }
              ],
              "internalType": "struct Applicants.ExpDurationStart",
              "name": "start",
              "type": "tuple"
            },
            {
              "components": [
                {
                  "internalType": "uint256",
                  "name": "year",
                  "type": "uint256"
                },
                {
                  "internalType": "enum Applicants.ExpDurationMonth",
                  "name": "ExpDurationMonth",
                  "type": "uint8"
                },
                {
                  "internalType": "bool",
                  "name": "present",
                  "type": "bool"
                }
              ],
              "internalType": "struct Applicants.ExpDurationEnd",
              "name": "end",
              "type": "tuple"
            },
            {
              "internalType": "string",
              "name": "specialization",
              "type": "string"
            },
            {
              "internalType": "string",
              "name": "role",
              "type": "string"
            },
            {
              "internalType": "string",
              "name": "country",
              "type": "string"
            },
            {
              "internalType": "string",
              "name": "industry",
              "type": "string"
            },
            {
              "internalType": "string",
              "name": "positionLevel",
              "type": "string"
            },
            {
              "components": [
                {
                  "internalType": "string",
                  "name": "currency",
                  "type": "string"
                },
                {
                  "internalType": "uint256",
                  "name": "amount",
                  "type": "uint256"
                }
              ],
              "internalType": "struct Applicants.Stipend",
              "name": "monthlySalary",
              "type": "tuple"
            },
            {
              "internalType": "string",
              "name": "description",
              "type": "string"
            },
            {
              "internalType": "bool",
              "name": "exists",
              "type": "bool"
            }
          ],
          "internalType": "struct Applicants.Experience",
          "name": "",
          "type": "tuple"
        }
      ],
      "payable": false,
      "stateMutability": "view",
      "type": "function"
    },
    {
      "constant": false,
      "inputs": [
        {
          "internalType": "address",
          "name": "_address",
          "type": "address"
        },
        {
          "internalType": "string",
          "name": "_experienceName",
          "type": "string"
        },
        {
          "internalType": "string[]",
          "name": "_details",
          "type": "string[]"
        },
        {
          "internalType": "uint256[]",
          "name": "_start",
          "type": "uint256[]"
        },
        {
          "internalType": "uint256[]",
          "name": "_end",
          "type": "uint256[]"
        },
        {
          "internalType": "bool",
          "name": "_present",
          "type": "bool"
        },
        {
          "internalType": "string",
          "name": "_currency",
          "type": "string"
        },
        {
          "internalType": "uint256",
          "name": "_amount",
          "type": "uint256"
        }
      ],
      "name": "updateExperience",
      "outputs": [
        {
          "internalType": "bool",
          "name": "",
          "type": "bool"
        },
        {
          "internalType": "string",
          "name": "",
          "type": "string"
        }
      ],
      "payable": false,
      "stateMutability": "nonpayable",
      "type": "function"
    },
    {
      "constant": true,
      "inputs": [
        {
          "internalType": "address",
          "name": "_address",
          "type": "address"
        },
        {
          "internalType": "string",
          "name": "_experienceName",
          "type": "string"
        },
        {
          "internalType": "string",
          "name": "_administrativeCode",
          "type": "string"
        }
      ],
      "name": "experienceFound",
      "outputs": [
        {
          "internalType": "bool",
          "name": "",
          "type": "bool"
        },
        {
          "internalType": "uint256",
          "name": "",
          "type": "uint256"
        }
      ],
      "payable": false,
      "stateMutability": "view",
      "type": "function"
    },
    {
      "constant": false,
      "inputs": [
        {
          "internalType": "address",
          "name": "_address",
          "type": "address"
        },
        {
          "internalType": "string",
          "name": "_experienceName",
          "type": "string"
        }
      ],
      "name": "deleteExperience",
      "outputs": [
        {
          "internalType": "bool",
          "name": "",
          "type": "bool"
        },
        {
          "internalType": "string",
          "name": "",
          "type": "string"
        }
      ],
      "payable": false,
      "stateMutability": "nonpayable",
      "type": "function"
    },
    {
      "constant": true,
      "inputs": [
        {
          "internalType": "string",
          "name": "a",
          "type": "string"
        },
        {
          "internalType": "string",
          "name": "b",
          "type": "string"
        }
      ],
      "name": "compareStrings",
      "outputs": [
        {
          "internalType": "bool",
          "name": "",
          "type": "bool"
        }
      ],
      "payable": false,
      "stateMutability": "pure",
      "type": "function"
    },
    {
      "constant": true,
      "inputs": [
        {
          "internalType": "address",
          "name": "x",
          "type": "address"
        }
      ],
      "name": "addressToString",
      "outputs": [
        {
          "internalType": "string",
          "name": "",
          "type": "string"
        }
      ],
      "payable": false,
      "stateMutability": "pure",
      "type": "function"
    }
  ],
  "bytecode": "0x608060405234801561001057600080fd5b5061581880620000216000396000f3fe608060405234801561001057600080fd5b50600436106101375760003560e01c8063a0d07922116100b8578063bffeb48f1161007c578063bffeb48f14610416578063d84412bc14610447578063d8d8a8d214610478578063ddf06dc6146104a8578063fa91de6b146104d9578063fa94aded1461050957610137565b8063a0d0792214610322578063a258924814610353578063a2901e1714610383578063b9308d9e146103b4578063bed34bba146103e657610137565b8063617e6c4f116100ff578063617e6c4f1461022f5780636a2584a5146102605780636fa74df71461029057806371589ffc146102c05780638bcb5117146102f157610137565b80631078a6811461013c57806330903fa51461016d578063329e5fc01461019e5780635433dc9f146101cf5780635e57966d146101ff575b600080fd5b61015660048036036101519190810190614af6565b61053a565b6040516101649291906152b1565b60405180910390f35b61018760048036036101829190810190614af6565b61070d565b6040516101959291906152b1565b60405180910390f35b6101b860048036036101b39190810190614822565b6108e0565b6040516101c69291906152b1565b60405180910390f35b6101e960048036036101e49190810190614822565b610a07565b6040516101f6919061536a565b60405180910390f35b610219600480360361021491908101906147f9565b61115f565b6040516102269190615348565b60405180910390f35b610249600480360361024491908101906149a0565b6113e0565b6040516102579291906152e1565b60405180910390f35b61027a600480360361027591908101906149a0565b611604565b60405161028791906153d0565b60405180910390f35b6102aa60048036036102a591908101906149a0565b61183f565b6040516102b791906153ae565b60405180910390f35b6102da60048036036102d59190810190614876565b611a4d565b6040516102e89291906152b1565b60405180910390f35b61030b60048036036103069190810190614822565b611ebf565b6040516103199291906152b1565b60405180910390f35b61033c600480360361033791908101906149a0565b611fe6565b60405161034a9291906152e1565b60405180910390f35b61036d600480360361036891908101906149a0565b61220a565b60405161037a919061538c565b60405180910390f35b61039d60048036036103989190810190614822565b6129f8565b6040516103ab9291906152b1565b60405180910390f35b6103ce60048036036103c99190810190614822565b612d67565b6040516103dd9392919061530a565b60405180910390f35b61040060048036036103fb9190810190614bf2565b613004565b60405161040d9190615296565b60405180910390f35b610430600480360361042b91908101906149a0565b61305d565b60405161043e9291906152e1565b60405180910390f35b610461600480360361045c9190810190614b9e565b613281565b60405161046f9291906152b1565b60405180910390f35b610492600480360361048d9190810190614b5d565b61346d565b60405161049f9190615274565b60405180910390f35b6104c260048036036104bd9190810190614af6565b613547565b6040516104d09291906152b1565b60405180910390f35b6104f360048036036104ee9190810190614a1f565b613761565b6040516105009190615296565b60405180910390f35b610523600480360361051e9190810190614822565b613ca2565b6040516105319291906152b1565b60405180910390f35b600060608473ffffffffffffffffffffffffffffffffffffffff163373ffffffffffffffffffffffffffffffffffffffff1614156106e55761058b8460405180602001604052806000815250613004565b15610655576105cf6040518060400160405280600381526020017f2d2d2d000000000000000000000000000000000000000000000000000000000081525084614011565b6000808773ffffffffffffffffffffffffffffffffffffffff1673ffffffffffffffffffffffffffffffffffffffff168152602001908152602001600020600a01600082015181600001908051906020019061062c9291906141d5565b506020820151816001015590505060016040518060200160405280600081525091509150610705565b61065f8484614011565b6000808773ffffffffffffffffffffffffffffffffffffffff1673ffffffffffffffffffffffffffffffffffffffff168152602001908152602001600020600a0160008201518160000190805190602001906106bc9291906141d5565b506020820151816001015590505060016040518060200160405280600081525091509150610705565b600060405180608001604052806049815260200161573e60499139915091505b935093915050565b600060608473ffffffffffffffffffffffffffffffffffffffff163373ffffffffffffffffffffffffffffffffffffffff1614156108b85761075e8460405180602001604052806000815250613004565b15610828576107a26040518060400160405280600381526020017f2d2d2d000000000000000000000000000000000000000000000000000000000081525084614011565b6000808773ffffffffffffffffffffffffffffffffffffffff1673ffffffffffffffffffffffffffffffffffffffff16815260200190815260200160002060080160008201518160000190805190602001906107ff9291906141d5565b5060208201518160010155905050600160405180602001604052806000815250915091506108d8565b6108328484614011565b6000808773ffffffffffffffffffffffffffffffffffffffff1673ffffffffffffffffffffffffffffffffffffffff168152602001908152602001600020600801600082015181600001908051906020019061088f9291906141d5565b5060208201518160010155905050600160405180602001604052806000815250915091506108d8565b600060405180608001604052806049815260200161573e60499139915091505b935093915050565b600060606000808573ffffffffffffffffffffffffffffffffffffffff1673ffffffffffffffffffffffffffffffffffffffff16815260200190815260200160002060040160009054906101000a900460ff16801561096a57508373ffffffffffffffffffffffffffffffffffffffff163373ffffffffffffffffffffffffffffffffffffffff16145b156109e057826000808673ffffffffffffffffffffffffffffffffffffffff1673ffffffffffffffffffffffffffffffffffffffff16815260200190815260200160002060020190805190602001906109c4929190614255565b5060016040518060200160405280600081525091509150610a00565b600060405180608001604052806049815260200161573e60499139915091505b9250929050565b610a0f6142d5565b610a4e826040518060400160405280600481526020017f7375646f00000000000000000000000000000000000000000000000000000000815250613004565b8015610a8657508273ffffffffffffffffffffffffffffffffffffffff163373ffffffffffffffffffffffffffffffffffffffff1614155b80610abc57508273ffffffffffffffffffffffffffffffffffffffff163373ffffffffffffffffffffffffffffffffffffffff16145b15611158576000808473ffffffffffffffffffffffffffffffffffffffff1673ffffffffffffffffffffffffffffffffffffffff16815260200190815260200160002060405180610140016040529081600082018054600181600116156101000203166002900480601f016020809104026020016040519081016040528092919081815260200182805460018160011615610100020316600290048015610ba45780601f10610b7957610100808354040283529160200191610ba4565b820191906000526020600020905b815481529060010190602001808311610b8757829003601f168201915b5050505050815260200160018201548152602001600282018054600181600116156101000203166002900480601f016020809104026020016040519081016040528092919081815260200182805460018160011615610100020316600290048015610c505780601f10610c2557610100808354040283529160200191610c50565b820191906000526020600020905b815481529060010190602001808311610c3357829003601f168201915b50505050508152602001600382018054600181600116156101000203166002900480601f016020809104026020016040519081016040528092919081815260200182805460018160011615610100020316600290048015610cf25780601f10610cc757610100808354040283529160200191610cf2565b820191906000526020600020905b815481529060010190602001808311610cd557829003601f168201915b505050505081526020016004820160009054906101000a900460ff1615151515815260200160058201805480602002602001604051908101604052809291908181526020016000905b82821015610df7578382906000526020600020018054600181600116156101000203166002900480601f016020809104026020016040519081016040528092919081815260200182805460018160011615610100020316600290048015610de35780601f10610db857610100808354040283529160200191610de3565b820191906000526020600020905b815481529060010190602001808311610dc657829003601f168201915b505050505081526020019060010190610d3b565b50505050815260200160068201805480602002602001604051908101604052809291908181526020016000905b82821015610ee0578382906000526020600020018054600181600116156101000203166002900480601f016020809104026020016040519081016040528092919081815260200182805460018160011615610100020316600290048015610ecc5780601f10610ea157610100808354040283529160200191610ecc565b820191906000526020600020905b815481529060010190602001808311610eaf57829003601f168201915b505050505081526020019060010190610e24565b50505050815260200160078201805480602002602001604051908101604052809291908181526020016000905b82821015610fc9578382906000526020600020018054600181600116156101000203166002900480601f016020809104026020016040519081016040528092919081815260200182805460018160011615610100020316600290048015610fb55780601f10610f8a57610100808354040283529160200191610fb5565b820191906000526020600020905b815481529060010190602001808311610f9857829003601f168201915b505050505081526020019060010190610f0d565b50505050815260200160088201604051806040016040529081600082018054600181600116156101000203166002900480601f01602080910402602001604051908101604052809291908181526020018280546001816001161561010002031660029004801561107a5780601f1061104f5761010080835404028352916020019161107a565b820191906000526020600020905b81548152906001019060200180831161105d57829003601f168201915b505050505081526020016001820154815250508152602001600a8201604051806040016040529081600082018054600181600116156101000203166002900480601f01602080910402602001604051908101604052809291908181526020018280546001816001161561010002031660029004801561113a5780601f1061110f5761010080835404028352916020019161113a565b820191906000526020600020905b81548152906001019060200180831161111d57829003601f168201915b50505050508152602001600182015481525050815250509050611159565b5b92915050565b606060008273ffffffffffffffffffffffffffffffffffffffff1660001b905060606040518060400160405280601081526020017f303132333435363738396162636465660000000000000000000000000000000081525090506060602a6040519080825280601f01601f1916602001820160405280156111ef5781602001600182028038833980820191505090505b5090507f30000000000000000000000000000000000000000000000000000000000000008160008151811061122057fe5b60200101907effffffffffffffffffffffffffffffffffffffffffffffffffffffffffffff1916908160001a9053507f78000000000000000000000000000000000000000000000000000000000000008160018151811061127d57fe5b60200101907effffffffffffffffffffffffffffffffffffffffffffffffffffffffffffff1916908160001a90535060008090505b60148110156113d45782600485600c8401602081106112cd57fe5b1a60f81b7effffffffffffffffffffffffffffffffffffffffffffffffffffffffffffff1916901c60f81c60ff168151811061130557fe5b602001015160f81c60f81b82600283026002018151811061132257fe5b60200101907effffffffffffffffffffffffffffffffffffffffffffffffffffffffffffff1916908160001a90535082600f60f81b85600c84016020811061136657fe5b1a60f81b1660f81c60ff168151811061137b57fe5b602001015160f81c60f81b82600283026003018151811061139857fe5b60200101907effffffffffffffffffffffffffffffffffffffffffffffffffffffffffffff1916908160001a90535080806001019150506112b2565b50809350505050919050565b6000808473ffffffffffffffffffffffffffffffffffffffff163373ffffffffffffffffffffffffffffffffffffffff1614806114585750611457836040518060400160405280600481526020017f7375646f00000000000000000000000000000000000000000000000000000000815250613004565b5b156115f1576000809050600080905060008090505b6000808973ffffffffffffffffffffffffffffffffffffffff1673ffffffffffffffffffffffffffffffffffffffff168152602001908152602001600020600501805490508110156115cb576115b16000808a73ffffffffffffffffffffffffffffffffffffffff1673ffffffffffffffffffffffffffffffffffffffff168152602001908152602001600020600501828154811061150857fe5b906000526020600020018054600181600116156101000203166002900480601f0160208091040260200160405190810160405280929190818152602001828054600181600116156101000203166002900480156115a65780601f1061157b576101008083540402835291602001916115a6565b820191906000526020600020905b81548152906001019060200180831161158957829003601f168201915b505050505088613004565b156115be57600192508091505b808060010191505061146d565b5081156115e0576001819350935050506115fc565b6000808090509350935050506115fc565b600080809050915091505b935093915050565b61160c614336565b61164b826040518060400160405280600481526020017f7375646f00000000000000000000000000000000000000000000000000000000815250613004565b801561168357508373ffffffffffffffffffffffffffffffffffffffff163373ffffffffffffffffffffffffffffffffffffffff1614155b806116b957508373ffffffffffffffffffffffffffffffffffffffff163373ffffffffffffffffffffffffffffffffffffffff16145b15611837576000806116cc868686611fe6565b8092508193505050600115156003866040516116e8919061522e565b908152602001604051809103902060010160019054906101000a900460ff1615151480156117135750815b1561183457600385604051611728919061522e565b9081526020016040518091039020604051806060016040529081600082018054600181600116156101000203166002900480601f0160208091040260200160405190810160405280929190818152602001828054600181600116156101000203166002900480156117da5780601f106117af576101008083540402835291602001916117da565b820191906000526020600020905b8154815290600101906020018083116117bd57829003601f168201915b505050505081526020016001820160009054906101000a900460ff16600381111561180157fe5b600381111561180c57fe5b81526020016001820160019054906101000a900460ff16151515158152505092505050611838565b50505b5b9392505050565b611847614364565b611886826040518060400160405280600481526020017f7375646f00000000000000000000000000000000000000000000000000000000815250613004565b80156118be57508373ffffffffffffffffffffffffffffffffffffffff163373ffffffffffffffffffffffffffffffffffffffff1614155b806118f457508373ffffffffffffffffffffffffffffffffffffffff163373ffffffffffffffffffffffffffffffffffffffff16145b15611a455760008061190786868661305d565b809250819350505060011515600486604051611923919061522e565b908152602001604051809103902060010160009054906101000a900460ff16151514801561194e5750815b15611a4257600485604051611963919061522e565b9081526020016040518091039020604051806040016040529081600082018054600181600116156101000203166002900480601f016020809104026020016040519081016040528092919081815260200182805460018160011615610100020316600290048015611a155780601f106119ea57610100808354040283529160200191611a15565b820191906000526020600020905b8154815290600101906020018083116119f857829003601f168201915b505050505081526020016001820160009054906101000a900460ff16151515158152505092505050611a46565b50505b5b9392505050565b6000606080611a5b8b61115f565b8a604051602001611a6d929190615245565b60405160208183030381529060405290508a73ffffffffffffffffffffffffffffffffffffffff163373ffffffffffffffffffffffffffffffffffffffff161415611e91576000600282604051611ac4919061522e565b9081526020016040518091039020905089600081518110611ae157fe5b6020026020010151816000019080519060200190611b00929190614255565b5089600181518110611b0e57fe5b6020026020010151816001019080519060200190611b2d929190614255565b5089600281518110611b3b57fe5b6020026020010151816006019080519060200190611b5a929190614255565b5089600381518110611b6857fe5b6020026020010151816007019080519060200190611b87929190614255565b5089600481518110611b9557fe5b6020026020010151816008019080519060200190611bb4929190614255565b5089600581518110611bc257fe5b6020026020010151816009019080519060200190611be1929190614255565b5089600681518110611bef57fe5b602002602001015181600a019080519060200190611c0e929190614255565b5089600781518110611c1c57fe5b602002602001015181600d019080519060200190611c3b929190614255565b50611c6e89600081518110611c4c57fe5b60200260200101518a600181518110611c6157fe5b6020026020010151614036565b816002016000820151816000015560208201518160010160006101000a81548160ff0219169083600c811115611ca057fe5b0217905550905050611cdb88600081518110611cb857fe5b602002602001015189600181518110611ccd57fe5b60200260200101518961406e565b816004016000820151816000015560208201518160010160006101000a81548160ff0219169083600c811115611d0d57fe5b021790555060408201518160010160016101000a81548160ff021916908315150217905550905050611d3f8686614011565b81600b016000820151816000019080519060200190611d5f9291906141d5565b5060208201518160010155905050600181600e0160006101000a81548160ff021916908315150217905550600080611da78e85604051806020016040528060008152506113e0565b809250819350505060001515821515148015611dee5750600284604051611dce919061522e565b9081526020016040518091039020600e0160009054906101000a900460ff165b15611e72576000808f73ffffffffffffffffffffffffffffffffffffffff1673ffffffffffffffffffffffffffffffffffffffff168152602001908152602001600020600501849080600181540180825580915050906001820390600052602060002001600090919290919091509080519060200190611e6f929190614255565b50505b6001604051806020016040528060008152509550955050505050611eb2565b600060405180608001604052806049815260200161573e6049913992509250505b9850989650505050505050565b600060606000808573ffffffffffffffffffffffffffffffffffffffff1673ffffffffffffffffffffffffffffffffffffffff16815260200190815260200160002060040160009054906101000a900460ff168015611f4957508373ffffffffffffffffffffffffffffffffffffffff163373ffffffffffffffffffffffffffffffffffffffff16145b15611fbf57826000808673ffffffffffffffffffffffffffffffffffffffff1673ffffffffffffffffffffffffffffffffffffffff1681526020019081526020016000206003019080519060200190611fa3929190614255565b5060016040518060200160405280600081525091509150611fdf565b600060405180608001604052806049815260200161573e60499139915091505b9250929050565b6000808473ffffffffffffffffffffffffffffffffffffffff163373ffffffffffffffffffffffffffffffffffffffff16148061205e575061205d836040518060400160405280600481526020017f7375646f00000000000000000000000000000000000000000000000000000000815250613004565b5b156121f7576000809050600080905060008090505b6000808973ffffffffffffffffffffffffffffffffffffffff1673ffffffffffffffffffffffffffffffffffffffff168152602001908152602001600020600601805490508110156121d1576121b76000808a73ffffffffffffffffffffffffffffffffffffffff1673ffffffffffffffffffffffffffffffffffffffff168152602001908152602001600020600601828154811061210e57fe5b906000526020600020018054600181600116156101000203166002900480601f0160208091040260200160405190810160405280929190818152602001828054600181600116156101000203166002900480156121ac5780601f10612181576101008083540402835291602001916121ac565b820191906000526020600020905b81548152906001019060200180831161218f57829003601f168201915b505050505088613004565b156121c457600192508091505b8080600101915050612073565b5081156121e657600181935093505050612202565b600080809050935093505050612202565b600080809050915091505b935093915050565b612212614380565b612251826040518060400160405280600481526020017f7375646f00000000000000000000000000000000000000000000000000000000815250613004565b801561228957508373ffffffffffffffffffffffffffffffffffffffff163373ffffffffffffffffffffffffffffffffffffffff1614155b806122bf57508373ffffffffffffffffffffffffffffffffffffffff163373ffffffffffffffffffffffffffffffffffffffff16145b156129f0576000806122d28686866113e0565b8092508193505050600115156002866040516122ee919061522e565b9081526020016040518091039020600e0160009054906101000a900460ff1615151480156123195750815b156129ed5760028560405161232e919061522e565b908152602001604051809103902060405180610180016040529081600082018054600181600116156101000203166002900480601f0160208091040260200160405190810160405280929190818152602001828054600181600116156101000203166002900480156123e15780601f106123b6576101008083540402835291602001916123e1565b820191906000526020600020905b8154815290600101906020018083116123c457829003601f168201915b50505050508152602001600182018054600181600116156101000203166002900480601f0160208091040260200160405190810160405280929190818152602001828054600181600116156101000203166002900480156124835780601f1061245857610100808354040283529160200191612483565b820191906000526020600020905b81548152906001019060200180831161246657829003601f168201915b5050505050815260200160028201604051806040016040529081600082015481526020016001820160009054906101000a900460ff16600c8111156124c457fe5b600c8111156124cf57fe5b81525050815260200160048201604051806060016040529081600082015481526020016001820160009054906101000a900460ff16600c81111561250f57fe5b600c81111561251a57fe5b81526020016001820160019054906101000a900460ff1615151515815250508152602001600682018054600181600116156101000203166002900480601f0160208091040260200160405190810160405280929190818152602001828054600181600116156101000203166002900480156125d65780601f106125ab576101008083540402835291602001916125d6565b820191906000526020600020905b8154815290600101906020018083116125b957829003601f168201915b50505050508152602001600782018054600181600116156101000203166002900480601f0160208091040260200160405190810160405280929190818152602001828054600181600116156101000203166002900480156126785780601f1061264d57610100808354040283529160200191612678565b820191906000526020600020905b81548152906001019060200180831161265b57829003601f168201915b50505050508152602001600882018054600181600116156101000203166002900480601f01602080910402602001604051908101604052809291908181526020018280546001816001161561010002031660029004801561271a5780601f106126ef5761010080835404028352916020019161271a565b820191906000526020600020905b8154815290600101906020018083116126fd57829003601f168201915b50505050508152602001600982018054600181600116156101000203166002900480601f0160208091040260200160405190810160405280929190818152602001828054600181600116156101000203166002900480156127bc5780601f10612791576101008083540402835291602001916127bc565b820191906000526020600020905b81548152906001019060200180831161279f57829003601f168201915b50505050508152602001600a82018054600181600116156101000203166002900480601f01602080910402602001604051908101604052809291908181526020018280546001816001161561010002031660029004801561285e5780601f106128335761010080835404028352916020019161285e565b820191906000526020600020905b81548152906001019060200180831161284157829003601f168201915b50505050508152602001600b8201604051806040016040529081600082018054600181600116156101000203166002900480601f0160208091040260200160405190810160405280929190818152602001828054600181600116156101000203166002900480156129105780601f106128e557610100808354040283529160200191612910565b820191906000526020600020905b8154815290600101906020018083116128f357829003601f168201915b505050505081526020016001820154815250508152602001600d82018054600181600116156101000203166002900480601f0160208091040260200160405190810160405280929190818152602001828054600181600116156101000203166002900480156129c05780601f10612995576101008083540402835291602001916129c0565b820191906000526020600020905b8154815290600101906020018083116129a357829003601f168201915b50505050508152602001600e820160009054906101000a900460ff161515151581525050925050506129f1565b50505b5b9392505050565b600060603373ffffffffffffffffffffffffffffffffffffffff168473ffffffffffffffffffffffffffffffffffffffff161415612d4057600080612a4d8686604051806020016040528060008152506113e0565b809250819350505060011515821515148015612a945750600285604051612a74919061522e565b9081526020016040518091039020600e0160009054906101000a900460ff165b15612d23576000600286604051612aab919061522e565b9081526020016040518091039020600e0160006101000a81548160ff02191690831515021790555060008190505b60016000808973ffffffffffffffffffffffffffffffffffffffff1673ffffffffffffffffffffffffffffffffffffffff1681526020019081526020016000206005018054905003811015612c04576000808873ffffffffffffffffffffffffffffffffffffffff1673ffffffffffffffffffffffffffffffffffffffff1681526020019081526020016000206005016001820181548110612b7757fe5b906000526020600020016000808973ffffffffffffffffffffffffffffffffffffffff1673ffffffffffffffffffffffffffffffffffffffff1681526020019081526020016000206005018281548110612bcd57fe5b906000526020600020019080546001816001161561010002031660029004612bf69291906143f5565b508080600101915050612ad9565b506000808773ffffffffffffffffffffffffffffffffffffffff1673ffffffffffffffffffffffffffffffffffffffff16815260200190815260200160002060050160016000808973ffffffffffffffffffffffffffffffffffffffff1673ffffffffffffffffffffffffffffffffffffffff168152602001908152602001600020600501805490500381548110612c9857fe5b906000526020600020016000612cae919061447c565b60016000808873ffffffffffffffffffffffffffffffffffffffff1673ffffffffffffffffffffffffffffffffffffffff16815260200190815260200160002060050181818054905003915081612d0591906144c4565b50600160405180602001604052806000815250935093505050612d60565b600160405180602001604052806000815250935093505050612d60565b60006040518060800160405280604f8152602001615787604f9139915091505b9250929050565b60008060606000808673ffffffffffffffffffffffffffffffffffffffff1673ffffffffffffffffffffffffffffffffffffffff16815260200190815260200160002060040160009054906101000a900460ff168015612df257508473ffffffffffffffffffffffffffffffffffffffff163373ffffffffffffffffffffffffffffffffffffffff16145b15612fd75760036000808773ffffffffffffffffffffffffffffffffffffffff1673ffffffffffffffffffffffffffffffffffffffff168152602001908152602001600020600101541015612f6f57836000808773ffffffffffffffffffffffffffffffffffffffff1673ffffffffffffffffffffffffffffffffffffffff1681526020019081526020016000206000019080519060200190612e96929190614255565b5060016000808773ffffffffffffffffffffffffffffffffffffffff1673ffffffffffffffffffffffffffffffffffffffff1681526020019081526020016000206001016000828254019250508190555060016000808773ffffffffffffffffffffffffffffffffffffffff1673ffffffffffffffffffffffffffffffffffffffff168152602001908152602001600020600101546003036040518060400160405280600d81526020017f4e616d65206368616e6765642100000000000000000000000000000000000000815250925092509250612ffd565b60008060008773ffffffffffffffffffffffffffffffffffffffff1673ffffffffffffffffffffffffffffffffffffffff1681526020019081526020016000206001015460405180606001604052806033815260200161570b60339139925092509250612ffd565b60008080905060405180608001604052806049815260200161573e604991399250925092505b9250925092565b600081604051602001613017919061522e565b604051602081830303815290604052805190602001208360405160200161303e919061522e565b6040516020818303038152906040528051906020012014905092915050565b6000808473ffffffffffffffffffffffffffffffffffffffff163373ffffffffffffffffffffffffffffffffffffffff1614806130d557506130d4836040518060400160405280600481526020017f7375646f00000000000000000000000000000000000000000000000000000000815250613004565b5b1561326e576000809050600080905060008090505b6000808973ffffffffffffffffffffffffffffffffffffffff1673ffffffffffffffffffffffffffffffffffffffff168152602001908152602001600020600701805490508110156132485761322e6000808a73ffffffffffffffffffffffffffffffffffffffff1673ffffffffffffffffffffffffffffffffffffffff168152602001908152602001600020600701828154811061318557fe5b906000526020600020018054600181600116156101000203166002900480601f0160208091040260200160405190810160405280929190818152602001828054600181600116156101000203166002900480156132235780601f106131f857610100808354040283529160200191613223565b820191906000526020600020905b81548152906001019060200180831161320657829003601f168201915b505050505088613004565b1561323b57600192508091505b80806001019150506130ea565b50811561325d57600181935093505050613279565b600080809050935093505050613279565b600080809050915091505b935093915050565b600060608061328f8461115f565b856040516020016132a1929190615245565b60405160208183030381529060405290508373ffffffffffffffffffffffffffffffffffffffff163373ffffffffffffffffffffffffffffffffffffffff1614156134455760006004826040516132f8919061522e565b9081526020016040518091039020905085816000019080519060200190613320929190614255565b5060018160010160006101000a81548160ff02191690831515021790555060008061335b878560405180602001604052806000815250611fe6565b8092508193505050600015158215151480156133a25750600384604051613382919061522e565b908152602001604051809103902060010160019054906101000a900460ff165b15613426576000808873ffffffffffffffffffffffffffffffffffffffff1673ffffffffffffffffffffffffffffffffffffffff168152602001908152602001600020600601849080600181540180825580915050906001820390600052602060002001600090919290919091509080519060200190613423929190614255565b50505b6001604051806020016040528060008152509550955050505050613466565b600060405180608001604052806049815260200161573e6049913992509250505b9250929050565b60606134ae826040518060400160405280600481526020017f7375646f00000000000000000000000000000000000000000000000000000000815250613004565b1561354157600180548060200260200160405190810160405280929190818152602001828054801561353557602002820191906000526020600020905b8160009054906101000a900473ffffffffffffffffffffffffffffffffffffffff1673ffffffffffffffffffffffffffffffffffffffff16815260200190600101908083116134eb575b50505050509050613542565b5b919050565b60006060806135558661115f565b85604051602001613567929190615245565b60405160208183030381529060405290508573ffffffffffffffffffffffffffffffffffffffff163373ffffffffffffffffffffffffffffffffffffffff1614156137385760006003826040516135be919061522e565b90815260200160405180910390209050858160000190805190602001906135e6929190614255565b506135f0856140af565b8160010160006101000a81548160ff0219169083600381111561360f57fe5b021790555060018160010160016101000a81548160ff02191690831515021790555060008061364e898560405180602001604052806000815250611fe6565b8092508193505050600015158215151480156136955750600384604051613675919061522e565b908152602001604051809103902060010160019054906101000a900460ff165b15613719576000808a73ffffffffffffffffffffffffffffffffffffffff1673ffffffffffffffffffffffffffffffffffffffff168152602001908152602001600020600601849080600181540180825580915050906001820390600052602060002001600090919290919091509080519060200190613716929190614255565b50505b6001604051806020016040528060008152509550955050505050613759565b600060405180608001604052806049815260200161573e6049913992509250505b935093915050565b60008060008773ffffffffffffffffffffffffffffffffffffffff1673ffffffffffffffffffffffffffffffffffffffff16815260200190815260200160002060040160009054906101000a900460ff161580156137fa57506137f9826040518060400160405280600481526020017f7375646f00000000000000000000000000000000000000000000000000000000815250613004565b5b15613c945760008060008873ffffffffffffffffffffffffffffffffffffffff1673ffffffffffffffffffffffffffffffffffffffff168152602001908152602001600020905085816000019080519060200190613859929190614255565b506000816001018190555061387d8560405180602001604052806000815250613004565b15613912576040518060400160405280600381526020017f2d2d2d00000000000000000000000000000000000000000000000000000000008152506000808973ffffffffffffffffffffffffffffffffffffffff1673ffffffffffffffffffffffffffffffffffffffff168152602001908152602001600020600201908051906020019061390c929190614255565b50613969565b846000808973ffffffffffffffffffffffffffffffffffffffff1673ffffffffffffffffffffffffffffffffffffffff1681526020019081526020016000206002019080519060200190613967929190614255565b505b6139828560405180602001604052806000815250613004565b15613a17576040518060400160405280600381526020017f2d2d2d00000000000000000000000000000000000000000000000000000000008152506000808973ffffffffffffffffffffffffffffffffffffffff1673ffffffffffffffffffffffffffffffffffffffff1681526020019081526020016000206003019080519060200190613a11929190614255565b50613a6e565b836000808973ffffffffffffffffffffffffffffffffffffffff1673ffffffffffffffffffffffffffffffffffffffff1681526020019081526020016000206003019080519060200190613a6c929190614255565b505b613aae6040518060400160405280600381526020017f50687000000000000000000000000000000000000000000000000000000000008152506000614011565b6000808973ffffffffffffffffffffffffffffffffffffffff1673ffffffffffffffffffffffffffffffffffffffff1681526020019081526020016000206008016000820151816000019080519060200190613b0b9291906141d5565b5060208201518160010155905050613b596040518060400160405280600381526020017f50687000000000000000000000000000000000000000000000000000000000008152506000614011565b6000808973ffffffffffffffffffffffffffffffffffffffff1673ffffffffffffffffffffffffffffffffffffffff168152602001908152602001600020600a016000820151816000019080519060200190613bb69291906141d5565b506020820151816001015590505060018160040160006101000a81548160ff02191690831515021790555060018790806001815401808255809150509060018203906000526020600020016000909192909190916101000a81548173ffffffffffffffffffffffffffffffffffffffff021916908373ffffffffffffffffffffffffffffffffffffffff160217905550508673ffffffffffffffffffffffffffffffffffffffff167f6a983d5cce1c533cca1f79ca71eda485f478ac58ae1aae34dee7a7d6a786f53f60405160405180910390a26001915050613c99565b600090505b95945050505050565b600060603373ffffffffffffffffffffffffffffffffffffffff168473ffffffffffffffffffffffffffffffffffffffff161415613fea57600080613cf7868660405180602001604052806000815250611fe6565b809250819350505060011515821515148015613d3e5750600385604051613d1e919061522e565b908152602001604051809103902060010160019054906101000a900460ff165b15613fcd576000600386604051613d55919061522e565b908152602001604051809103902060010160016101000a81548160ff02191690831515021790555060008190505b60016000808973ffffffffffffffffffffffffffffffffffffffff1673ffffffffffffffffffffffffffffffffffffffff1681526020019081526020016000206006018054905003811015613eae576000808873ffffffffffffffffffffffffffffffffffffffff1673ffffffffffffffffffffffffffffffffffffffff1681526020019081526020016000206006016001820181548110613e2157fe5b906000526020600020016000808973ffffffffffffffffffffffffffffffffffffffff1673ffffffffffffffffffffffffffffffffffffffff1681526020019081526020016000206006018281548110613e7757fe5b906000526020600020019080546001816001161561010002031660029004613ea09291906143f5565b508080600101915050613d83565b506000808773ffffffffffffffffffffffffffffffffffffffff1673ffffffffffffffffffffffffffffffffffffffff16815260200190815260200160002060060160016000808973ffffffffffffffffffffffffffffffffffffffff1673ffffffffffffffffffffffffffffffffffffffff168152602001908152602001600020600601805490500381548110613f4257fe5b906000526020600020016000613f58919061447c565b60016000808873ffffffffffffffffffffffffffffffffffffffff1673ffffffffffffffffffffffffffffffffffffffff16815260200190815260200160002060060181818054905003915081613faf91906144c4565b5060016040518060200160405280600081525093509350505061400a565b60016040518060200160405280600081525093509350505061400a565b60006040518060800160405280604a81526020016156c1604a9139915091505b9250929050565b6140196144f0565b604051806040016040528084815260200183815250905092915050565b61403e61450a565b6040518060400160405280848152602001614058846140f1565b600c81111561406357fe5b815250905092915050565b61407661452f565b6040518060600160405280858152602001614090856140f1565b600c81111561409b57fe5b815260200183151581525090509392505050565b600060018214156140c357600190506140ec565b60028214156140d557600290506140ec565b60038214156140e757600390506140ec565b600090505b919050565b6000600182141561410557600190506141d0565b600282141561411757600290506141d0565b600382141561412957600390506141d0565b600482141561413b57600490506141d0565b600582141561414d57600590506141d0565b600682141561415f57600690506141d0565b600782141561417157600790506141d0565b600882141561418357600890506141d0565b600982141561419557600990506141d0565b600a8214156141a757600a90506141d0565b600b8214156141b957600b90506141d0565b600c8214156141cb57600c90506141d0565b600090505b919050565b828054600181600116156101000203166002900490600052602060002090601f016020900481019282601f1061421657805160ff1916838001178555614244565b82800160010185558215614244579182015b82811115614243578251825591602001919060010190614228565b5b509050614251919061455d565b5090565b828054600181600116156101000203166002900490600052602060002090601f016020900481019282601f1061429657805160ff19168380011785556142c4565b828001600101855582156142c4579182015b828111156142c35782518255916020019190600101906142a8565b5b5090506142d1919061455d565b5090565b60405180610140016040528060608152602001600081526020016060815260200160608152602001600015158152602001606081526020016060815260200160608152602001614323614582565b8152602001614330614582565b81525090565b6040518060600160405280606081526020016000600381111561435557fe5b81526020016000151581525090565b6040518060400160405280606081526020016000151581525090565b60405180610180016040528060608152602001606081526020016143a261459c565b81526020016143af6145c1565b815260200160608152602001606081526020016060815260200160608152602001606081526020016143df614582565b8152602001606081526020016000151581525090565b828054600181600116156101000203166002900490600052602060002090601f016020900481019282601f1061442e578054855561446b565b8280016001018555821561446b57600052602060002091601f016020900482015b8281111561446a57825482559160010191906001019061444f565b5b509050614478919061455d565b5090565b50805460018160011615610100020316600290046000825580601f106144a257506144c1565b601f0160209004906000526020600020908101906144c0919061455d565b5b50565b8154818355818111156144eb578183600052602060002091820191016144ea91906145ef565b5b505050565b604051806040016040528060608152602001600081525090565b6040518060400160405280600081526020016000600c81111561452957fe5b81525090565b6040518060600160405280600081526020016000600c81111561454e57fe5b81526020016000151581525090565b61457f91905b8082111561457b576000816000905550600101614563565b5090565b90565b604051806040016040528060608152602001600081525090565b6040518060400160405280600081526020016000600c8111156145bb57fe5b81525090565b6040518060600160405280600081526020016000600c8111156145e057fe5b81526020016000151581525090565b61461891905b80821115614614576000818161460b919061447c565b506001016145f5565b5090565b90565b60008135905061462a8161567b565b92915050565b600082601f83011261464157600080fd5b813561465461464f8261541f565b6153f2565b9150818183526020840193506020810190508360005b8381101561469a5781358601614680888261473c565b84526020840193506020830192505060018101905061466a565b5050505092915050565b600082601f8301126146b557600080fd5b81356146c86146c382615447565b6153f2565b915081818352602084019350602081019050838560208402820111156146ed57600080fd5b60005b8381101561471d578161470388826147e4565b8452602084019350602083019250506001810190506146f0565b5050505092915050565b60008135905061473681615692565b92915050565b600082601f83011261474d57600080fd5b813561476061475b8261546f565b6153f2565b9150808252602083016020830185838301111561477c57600080fd5b61478783828461560e565b50505092915050565b600082601f8301126147a157600080fd5b81356147b46147af8261549b565b6153f2565b915080825260208301602083018583830111156147d057600080fd5b6147db83828461560e565b50505092915050565b6000813590506147f3816156a9565b92915050565b60006020828403121561480b57600080fd5b60006148198482850161461b565b91505092915050565b6000806040838503121561483557600080fd5b60006148438582860161461b565b925050602083013567ffffffffffffffff81111561486057600080fd5b61486c85828601614790565b9150509250929050565b600080600080600080600080610100898b03121561489357600080fd5b60006148a18b828c0161461b565b985050602089013567ffffffffffffffff8111156148be57600080fd5b6148ca8b828c01614790565b975050604089013567ffffffffffffffff8111156148e757600080fd5b6148f38b828c01614630565b965050606089013567ffffffffffffffff81111561491057600080fd5b61491c8b828c016146a4565b955050608089013567ffffffffffffffff81111561493957600080fd5b6149458b828c016146a4565b94505060a06149568b828c01614727565b93505060c089013567ffffffffffffffff81111561497357600080fd5b61497f8b828c01614790565b92505060e06149908b828c016147e4565b9150509295985092959890939650565b6000806000606084860312156149b557600080fd5b60006149c38682870161461b565b935050602084013567ffffffffffffffff8111156149e057600080fd5b6149ec86828701614790565b925050604084013567ffffffffffffffff811115614a0957600080fd5b614a1586828701614790565b9150509250925092565b600080600080600060a08688031215614a3757600080fd5b6000614a458882890161461b565b955050602086013567ffffffffffffffff811115614a6257600080fd5b614a6e88828901614790565b945050604086013567ffffffffffffffff811115614a8b57600080fd5b614a9788828901614790565b935050606086013567ffffffffffffffff811115614ab457600080fd5b614ac088828901614790565b925050608086013567ffffffffffffffff811115614add57600080fd5b614ae988828901614790565b9150509295509295909350565b600080600060608486031215614b0b57600080fd5b6000614b198682870161461b565b935050602084013567ffffffffffffffff811115614b3657600080fd5b614b4286828701614790565b9250506040614b53868287016147e4565b9150509250925092565b600060208284031215614b6f57600080fd5b600082013567ffffffffffffffff811115614b8957600080fd5b614b9584828501614790565b91505092915050565b60008060408385031215614bb157600080fd5b600083013567ffffffffffffffff811115614bcb57600080fd5b614bd785828601614790565b9250506020614be88582860161461b565b9150509250929050565b60008060408385031215614c0557600080fd5b600083013567ffffffffffffffff811115614c1f57600080fd5b614c2b85828601614790565b925050602083013567ffffffffffffffff811115614c4857600080fd5b614c5485828601614790565b9150509250929050565b6000614c6a8383614c8a565b60208301905092915050565b6000614c828383614e12565b905092915050565b614c938161557c565b82525050565b6000614ca4826154e7565b614cae818561552d565b9350614cb9836154c7565b8060005b83811015614cea578151614cd18882614c5e565b9750614cdc83615513565b925050600181019050614cbd565b5085935050505092915050565b6000614d02826154f2565b614d0c818561553e565b935083602082028501614d1e856154d7565b8060005b85811015614d5a5784840389528151614d3b8582614c76565b9450614d4683615520565b925060208a01995050600181019050614d22565b50829750879550505050505092915050565b614d758161558e565b82525050565b614d848161558e565b82525050565b614d93816155ea565b82525050565b614da2816155fc565b82525050565b6000614db382615508565b614dbd8185615560565b9350614dcd81856020860161561d565b614dd681615650565b840191505092915050565b6000614dec82615508565b614df68185615571565b9350614e0681856020860161561d565b80840191505092915050565b6000614e1d826154fd565b614e27818561554f565b9350614e3781856020860161561d565b614e4081615650565b840191505092915050565b6000614e58600183615571565b91507f2d000000000000000000000000000000000000000000000000000000000000006000830152600182019050919050565b6000610140830160008301518482036000860152614ea98282614e12565b9150506020830151614ebe6020860182615210565b5060408301518482036040860152614ed68282614e12565b91505060608301518482036060860152614ef08282614e12565b9150506080830151614f056080860182614d6c565b5060a083015184820360a0860152614f1d8282614cf7565b91505060c083015184820360c0860152614f378282614cf7565b91505060e083015184820360e0860152614f518282614cf7565b915050610100830151848203610100860152614f6d82826151d3565b915050610120830151848203610120860152614f8982826151d3565b9150508091505092915050565b606082016000820151614fac6000850182615210565b506020820151614fbf6020850182614d8a565b506040820151614fd26040850182614d6c565b50505050565b604082016000820151614fee6000850182615210565b5060208201516150016020850182614d8a565b50505050565b60006101e08301600083015184820360008601526150258282614e12565b9150506020830151848203602086015261503f8282614e12565b91505060408301516150546040860182614fd8565b5060608301516150676080860182614f96565b50608083015184820360e086015261507f8282614e12565b91505060a083015184820361010086015261509a8282614e12565b91505060c08301518482036101208601526150b58282614e12565b91505060e08301518482036101408601526150d08282614e12565b9150506101008301518482036101608601526150ec8282614e12565b91505061012083015184820361018086015261510882826151d3565b9150506101408301518482036101a08601526151248282614e12565b91505061016083015161513b6101c0860182614d6c565b508091505092915050565b600060408301600083015184820360008601526151638282614e12565b91505060208301516151786020860182614d6c565b508091505092915050565b600060608301600083015184820360008601526151a08282614e12565b91505060208301516151b56020860182614d99565b5060408301516151c86040860182614d6c565b508091505092915050565b600060408301600083015184820360008601526151f08282614e12565b91505060208301516152056020860182615210565b508091505092915050565b615219816155e0565b82525050565b615228816155e0565b82525050565b600061523a8284614de1565b915081905092915050565b60006152518285614de1565b915061525c82614e4b565b91506152688284614de1565b91508190509392505050565b6000602082019050818103600083015261528e8184614c99565b905092915050565b60006020820190506152ab6000830184614d7b565b92915050565b60006040820190506152c66000830185614d7b565b81810360208301526152d88184614da8565b90509392505050565b60006040820190506152f66000830185614d7b565b615303602083018461521f565b9392505050565b600060608201905061531f6000830186614d7b565b61532c602083018561521f565b818103604083015261533e8184614da8565b9050949350505050565b600060208201905081810360008301526153628184614da8565b905092915050565b600060208201905081810360008301526153848184614e8b565b905092915050565b600060208201905081810360008301526153a68184615007565b905092915050565b600060208201905081810360008301526153c88184615146565b905092915050565b600060208201905081810360008301526153ea8184615183565b905092915050565b6000604051905081810181811067ffffffffffffffff8211171561541557600080fd5b8060405250919050565b600067ffffffffffffffff82111561543657600080fd5b602082029050602081019050919050565b600067ffffffffffffffff82111561545e57600080fd5b602082029050602081019050919050565b600067ffffffffffffffff82111561548657600080fd5b601f19601f8301169050602081019050919050565b600067ffffffffffffffff8211156154b257600080fd5b601f19601f8301169050602081019050919050565b6000819050602082019050919050565b6000819050602082019050919050565b600081519050919050565b600081519050919050565b600081519050919050565b600081519050919050565b6000602082019050919050565b6000602082019050919050565b600082825260208201905092915050565b600082825260208201905092915050565b600082825260208201905092915050565b600082825260208201905092915050565b600081905092915050565b6000615587826155c0565b9050919050565b60008115159050919050565b60008190506155a882615661565b919050565b60008190506155bb8261566e565b919050565b600073ffffffffffffffffffffffffffffffffffffffff82169050919050565b6000819050919050565b60006155f58261559a565b9050919050565b6000615607826155ad565b9050919050565b82818337600083830152505050565b60005b8381101561563b578082015181840152602081019050615620565b8381111561564a576000848401525b50505050565b6000601f19601f8301169050919050565b600d811061566b57fe5b50565b6004811061567857fe5b50565b6156848161557c565b811461568f57600080fd5b50565b61569b8161558e565b81146156a657600080fd5b50565b6156b2816155e0565b81146156bd57600080fd5b5056fe4f6e65206d7573742062652061626c6520746f206368616e6765206f776e20736b696c6c73206279206c6f6767696e6720696e2077697468206f6e652773206f776e206164647265737354686973206163636f756e74206578636565647320696e20746865206e756d626572206f66206e616d65206368616e6765732e4163636f756e7420686f6c64657220646f6573206e6f7420657869737473206f7220796f7520617265206e6f742074686520686f6c646572206f662074686973206163636f756e742e4f6e65206d7573742062652061626c6520746f206368616e6765206f776e20657870657269656e636573206279206c6f6767696e6720696e2077697468206f6e652773206f776e2061646472657373a365627a7a723158205b15d0b0995f94b5908093b6e28c048fd507305091776a0d03994975e78cec056c6578706572696d656e74616cf564736f6c63430005100040",
  "source": "pragma solidity >=0.4.21 <0.7.0;\r\n\r\nimport \"./Migrations.sol\";\r\npragma experimental ABIEncoderV2;\r\n\r\ncontract Applicants {\r\n    enum ExpDurationMonth {Zero, January, February, March, April, May, June, July, August, September, October, November, December}\r\n    enum SkillLevel {Default, Beginner, Intermediate, Advanced}\r\n    enum ProficiencyLevel {Default, Novice, Fluent, Intermediate, Advanced, Superior} // Customized ACTFL Proficiency (American Council on the Teaching of Foreign Language)\r\n\r\n    struct Applicant {\r\n        // Personal Information\r\n        string name;\r\n            uint nameChanges;\r\n        string physicalAddress;\r\n        string nationality;\r\n        bool exists;\r\n\r\n        // Experiences\r\n        string[] experienceIdentifiers;\r\n\r\n        // SKills\r\n        string[] skillIdentifiers;\r\n\r\n        // Identifications\r\n        string[] identificationIdentifiers;\r\n\r\n        // Salary Preference\r\n        Stipend salaryFlooring;\r\n        Stipend salaryCeiling;\r\n    }\r\n\r\n    struct Language {\r\n        string name;\r\n        ProficiencyLevel spokenProficiency;\r\n        ProficiencyLevel writtenProficiency;\r\n        bool exists;\r\n    }\r\n\r\n    struct Skill {\r\n        string name;\r\n        SkillLevel level;\r\n        bool exists;\r\n    }\r\n\r\n    struct Experience {\r\n        string positionTitle;\r\n        string companyName;\r\n        ExpDurationStart start;\r\n        ExpDurationEnd end;\r\n        string specialization;\r\n        string role;\r\n        string country;\r\n        string industry;\r\n        string positionLevel;\r\n        Stipend monthlySalary;\r\n        string description;\r\n        bool exists;\r\n    }\r\n\r\n    struct ExpDurationEnd {\r\n        uint year;\r\n        Applicants.ExpDurationMonth ExpDurationMonth;\r\n        bool present;\r\n    }\r\n\r\n    struct ExpDurationStart {\r\n        uint year;\r\n        Applicants.ExpDurationMonth ExpDurationMonth;\r\n    }\r\n\r\n    struct Stipend {\r\n        string currency;\r\n        uint amount;\r\n    }\r\n\r\n    struct Identification {\r\n        string filename;\r\n        bool exists;\r\n    }\r\n\r\n    mapping (address => Applicant) applicants;\r\n    address[] applicantAccts;\r\n    mapping (string => Experience) experiences;\r\n    mapping (string => Skill) skills;\r\n    mapping (string => Identification) identifications;\r\n\r\n\r\n    event ApplicantsAppend (address indexed _address);\r\n\r\n    // Identifications\r\n\r\n    function updateIdentification(\r\n        string memory _fileName, address _address\r\n    ) public returns (bool, string memory) {\r\n        string memory tempFileNameIdentifier = string(abi.encodePacked(addressToString(_address), \"-\", _fileName));\r\n        if (msg.sender == _address) {\r\n            Identification storage identification = identifications[tempFileNameIdentifier];\r\n            identification.filename = _fileName;\r\n            identification.exists = true;\r\n            bool _skillFound;\r\n            uint _skillIndex;\r\n            (_skillFound, _skillIndex) = skillFound(_address, tempFileNameIdentifier, \"\");\r\n            if (_skillFound == false && skills[tempFileNameIdentifier].exists) {\r\n                applicants[_address].skillIdentifiers.push(tempFileNameIdentifier);\r\n            }\r\n            return (true, \"\");\r\n        } else {\r\n            return (false, \"Account holder does not exists or you are not the holder of this account.\");\r\n        }\r\n    }\r\n\r\n    function identificationFound(address _address, string memory _fileName, string memory _administrativeCode) public view returns (bool, uint) {\r\n        if ((msg.sender == _address) || (compareStrings(_administrativeCode, \"sudo\"))) {\r\n            bool found = false;\r\n            uint index = 0;\r\n            for (uint i = 0; i < applicants[_address].identificationIdentifiers.length; i++) {\r\n                if (compareStrings(applicants[_address].identificationIdentifiers[i], _fileName)) {\r\n                    found = true;\r\n                    index = i;\r\n                }\r\n            }\r\n            if (found) {\r\n                return (true, index);\r\n            } else {\r\n                return (false, 0);\r\n            }\r\n        } else {\r\n            return (false, 0);\r\n        }\r\n    }\r\n\r\n    function getIdentificationDetails(address _address, string memory _fileName, string memory _administrativeCode) view public returns (Identification memory) {\r\n        if ((compareStrings(_administrativeCode,\"sudo\") && msg.sender != _address) || (msg.sender == _address)) {\r\n            bool _identificationExists;\r\n            uint _identificationIndex;\r\n            (_identificationExists, _identificationIndex) = identificationFound(_address, _fileName, _administrativeCode);\r\n            if (identifications[_fileName].exists == true && _identificationExists) {\r\n                return identifications[_fileName];\r\n            }\r\n        }\r\n    }\r\n\r\n    // Applicants\r\n\r\n    function setApplicant (address _address, string memory _name, string memory _physicalAddress, string memory _nationality, string memory _administrativeCode) public returns (bool) {\r\n        if (!applicants[_address].exists && compareStrings(_administrativeCode,\"sudo\")) {\r\n            Applicant storage applicant = applicants[_address];\r\n            applicant.name = _name;\r\n            applicant.nameChanges = 0;\r\n            if (compareStrings(_physicalAddress,\"\")) {\r\n                applicants[_address].physicalAddress = \"---\";\r\n            } else {\r\n                applicants[_address].physicalAddress = _physicalAddress;\r\n            }\r\n            if (compareStrings(_physicalAddress,\"\")) {\r\n                applicants[_address].nationality = \"---\";\r\n            } else {\r\n                applicants[_address].nationality = _nationality;\r\n            }\r\n            applicants[_address].salaryFlooring = createStipend(\"Php\", 0);\r\n            applicants[_address].salaryCeiling = createStipend(\"Php\", 0);\r\n            applicant.exists = true;\r\n            applicantAccts.push(_address);\r\n            emit Applicants.ApplicantsAppend(_address);\r\n            return true;\r\n        } else {\r\n            return false;\r\n        }\r\n    }\r\n\r\n    function getApplicants(string memory _administrativeCode) view public returns(address[] memory) {\r\n        if (compareStrings(_administrativeCode,\"sudo\")) {\r\n            return applicantAccts;\r\n        }\r\n    }\r\n\r\n    function getApplicantProfile(address _address, string memory _administrativeCode) view public returns(Applicant memory) {\r\n        if ((compareStrings(_administrativeCode,\"sudo\") && msg.sender != _address) || (msg.sender == _address)) {\r\n            return applicants[_address];\r\n        }\r\n    }\r\n\r\n    function updateName (address _address, string memory _name) public returns (bool, uint, string memory) {\r\n        if (applicants[_address].exists && msg.sender == _address) {\r\n            if (applicants[_address].nameChanges < 3) {\r\n                applicants[_address].name = _name;\r\n                applicants[_address].nameChanges+=1;\r\n                return (true, 3-applicants[_address].nameChanges, \"Name changed!\" );\r\n            } else {\r\n                return (false, applicants[_address].nameChanges, \"This account exceeds in the number of name changes.\");\r\n            }\r\n        } else {\r\n            return (false, 0, \"Account holder does not exists or you are not the holder of this account.\");\r\n        }\r\n    }\r\n\r\n    function updateAddress(address _address, string memory _physicalAddress) public returns (bool, string memory) {\r\n        if (applicants[_address].exists && msg.sender == _address) {\r\n            applicants[_address].physicalAddress = _physicalAddress;\r\n            return (true, \"\");\r\n        } else {\r\n            return (false, \"Account holder does not exists or you are not the holder of this account.\");\r\n        }\r\n    }\r\n\r\n    function updateNationality(address _address, string memory _nationality) public returns (bool, string memory) {\r\n        if (applicants[_address].exists && msg.sender == _address) {\r\n            applicants[_address].nationality = _nationality;\r\n            return (true, \"\");\r\n        } else {\r\n            return (false, \"Account holder does not exists or you are not the holder of this account.\");\r\n        }\r\n    }\r\n\r\n    // Salary Preference Functions\r\n\r\n    function setSalaryFlooring(address _address, string memory _currency, uint _amount) public returns (bool, string memory){\r\n        if (msg.sender == _address) {\r\n            if (compareStrings(_currency,\"\")) {\r\n                applicants[_address].salaryFlooring = createStipend(\"---\", _amount);\r\n                return (true, \"\");\r\n            } else {\r\n                applicants[_address].salaryFlooring = createStipend(_currency, _amount);\r\n                return (true, \"\");\r\n            }\r\n        } else {\r\n            return (false, \"Account holder does not exists or you are not the holder of this account.\");\r\n        }\r\n    }\r\n\r\n    function setSalaryCeiling(address _address, string memory _currency, uint _amount) public returns (bool, string memory){\r\n        if (msg.sender == _address) {\r\n            if (compareStrings(_currency,\"\")) {\r\n                applicants[_address].salaryCeiling = createStipend(\"---\", _amount);\r\n                return (true, \"\");\r\n            } else {\r\n                applicants[_address].salaryCeiling = createStipend(_currency, _amount);\r\n                return (true, \"\");\r\n            }\r\n        } else {\r\n            return (false, \"Account holder does not exists or you are not the holder of this account.\");\r\n        }\r\n    }\r\n\r\n    // Skill Functions\r\n\r\n    function getSkillDetails(address _address, string memory _skillName, string memory _administrativeCode) view public returns (Skill memory) {\r\n        if ((compareStrings(_administrativeCode,\"sudo\") && msg.sender != _address) || (msg.sender == _address)) {\r\n            bool _skillExists;\r\n            uint _skillIndex;\r\n            (_skillExists, _skillIndex) = skillFound(_address, _skillName, _administrativeCode);\r\n            if (skills[_skillName].exists == true && _skillExists) {\r\n                return skills[_skillName];\r\n            }\r\n        }\r\n    }\r\n\r\n    function updateSkill(\r\n        address _address, string memory _skillName,\r\n        uint _level\r\n    ) public returns (bool, string memory) {\r\n        string memory tempSkillIdentifier = string(abi.encodePacked(addressToString(_address), \"-\", _skillName));\r\n        if (msg.sender == _address) {\r\n            Skill storage skill = skills[tempSkillIdentifier];\r\n            skill.name = _skillName;\r\n            skill.level = selectSkillLevel(_level);\r\n            skill.exists = true;\r\n            bool _skillFound;\r\n            uint _skillIndex;\r\n            (_skillFound, _skillIndex) = skillFound(_address, tempSkillIdentifier, \"\");\r\n            if (_skillFound == false && skills[tempSkillIdentifier].exists) {\r\n                applicants[_address].skillIdentifiers.push(tempSkillIdentifier);\r\n            }\r\n            return (true, \"\");\r\n        } else {\r\n            return (false, \"Account holder does not exists or you are not the holder of this account.\");\r\n        }\r\n    }\r\n\r\n    function skillFound(address _address, string memory _skillName, string memory _administrativeCode) public view returns (bool, uint) {\r\n        if ((msg.sender == _address) || (compareStrings(_administrativeCode, \"sudo\"))) {\r\n            bool found = false;\r\n            uint index = 0;\r\n            for (uint i = 0; i < applicants[_address].skillIdentifiers.length; i++) {\r\n                if (compareStrings(applicants[_address].skillIdentifiers[i], _skillName)) {\r\n                    found = true;\r\n                    index = i;\r\n                }\r\n            }\r\n            if (found) {\r\n                return (true, index);\r\n            } else {\r\n                return (false, 0);\r\n            }\r\n        } else {\r\n            return (false, 0);\r\n        }\r\n    }\r\n\r\n    function deleteSkill(address _address, string memory _skillName) public returns (bool, string memory) {\r\n        if (_address == msg.sender) {\r\n            bool _skillFound;\r\n            uint _skillIndex;\r\n            (_skillFound, _skillIndex) = skillFound(_address, _skillName, \"\");\r\n            if (_skillFound == true && skills[_skillName].exists) {\r\n                skills[_skillName].exists = false;\r\n                for (uint i = _skillIndex; i<applicants[_address].skillIdentifiers.length-1; i++){\r\n                    applicants[_address].skillIdentifiers[i] = applicants[_address].skillIdentifiers[i+1];\r\n                }\r\n                delete applicants[_address].skillIdentifiers[applicants[_address].skillIdentifiers.length-1];\r\n                applicants[_address].skillIdentifiers.length-=1;\r\n                return (true, \"\");\r\n            }\r\n            return (true, \"\");\r\n        } else {\r\n            return (false, \"One must be able to change own skills by logging in with one's own address\");\r\n        }\r\n    }\r\n\r\n    // Experience Functions\r\n\r\n    function getExperienceDetails(address _address, string memory _experienceName, string memory _administrativeCode) view public returns (Experience memory) {\r\n        if ((compareStrings(_administrativeCode,\"sudo\") && msg.sender != _address) || (msg.sender == _address)) {\r\n            bool _experienceExists;\r\n            uint _experienceIndex;\r\n            (_experienceExists, _experienceIndex) = experienceFound(_address, _experienceName, _administrativeCode);\r\n            if (experiences[_experienceName].exists == true && _experienceExists) {\r\n                return experiences[_experienceName];\r\n            }\r\n        }\r\n    }\r\n\r\n    function updateExperience(\r\n        address _address, string memory _experienceName,\r\n        string[] memory _details, uint[] memory _start, uint[] memory _end, bool _present,\r\n        string memory _currency, uint _amount\r\n    ) public returns (bool, string memory) {\r\n        string memory tempExperienceIdentifier = string(abi.encodePacked(addressToString(_address), \"-\", _experienceName));\r\n        if (msg.sender == _address) {\r\n            Experience storage experience = experiences[tempExperienceIdentifier];\r\n            experience.positionTitle = _details[0];\r\n            experience.companyName = _details[1];\r\n            experience.specialization = _details[2];\r\n            experience.role = _details[3];\r\n            experience.country = _details[4];\r\n            experience.industry = _details[5];\r\n            experience.positionLevel = _details[6];\r\n            experience.description = _details[7];\r\n            experience.start = createExpDurationStart(_start[0], _start[1]);\r\n            experience.end = createExpDurationEnd(_end[0], _end[1], _present);\r\n            experience.monthlySalary = createStipend(_currency, _amount);\r\n            experience.exists = true;\r\n            bool _experienceFound;\r\n            uint _experienceIndex;\r\n            (_experienceFound, _experienceIndex) = experienceFound(_address, tempExperienceIdentifier, \"\");\r\n            if (_experienceFound == false && experiences[tempExperienceIdentifier].exists) {\r\n                applicants[_address].experienceIdentifiers.push(tempExperienceIdentifier);\r\n            }\r\n            return (true, \"\");\r\n        } else {\r\n            return (false, \"Account holder does not exists or you are not the holder of this account.\");\r\n        }\r\n    }\r\n\r\n    function experienceFound(address _address, string memory _experienceName, string memory _administrativeCode) public view returns (bool, uint) {\r\n        if ((msg.sender == _address) || (compareStrings(_administrativeCode, \"sudo\"))) {\r\n            bool found = false;\r\n            uint index = 0;\r\n            for (uint i = 0; i < applicants[_address].experienceIdentifiers.length; i++) {\r\n                if (compareStrings(applicants[_address].experienceIdentifiers[i], _experienceName)) {\r\n                    found = true;\r\n                    index = i;\r\n                }\r\n            }\r\n            if (found) {\r\n                return (true, index);\r\n            } else {\r\n                return (false, 0);\r\n            }\r\n        } else {\r\n            return (false, 0);\r\n        }\r\n    }\r\n\r\n    function deleteExperience(address _address, string memory _experienceName) public returns (bool, string memory) {\r\n        if (_address == msg.sender) {\r\n            bool _experienceFound;\r\n            uint _experienceIndex;\r\n            (_experienceFound, _experienceIndex) = experienceFound(_address, _experienceName, \"\");\r\n            if (_experienceFound == true && experiences[_experienceName].exists) {\r\n                experiences[_experienceName].exists = false;\r\n                for (uint i = _experienceIndex; i<applicants[_address].experienceIdentifiers.length-1; i++){\r\n                    applicants[_address].experienceIdentifiers[i] = applicants[_address].experienceIdentifiers[i+1];\r\n                }\r\n                delete applicants[_address].experienceIdentifiers[applicants[_address].experienceIdentifiers.length-1];\r\n                applicants[_address].experienceIdentifiers.length-=1;\r\n                return (true, \"\");\r\n            }\r\n            return (true, \"\");\r\n        } else {\r\n            return (false, \"One must be able to change own experiences by logging in with one's own address\");\r\n        }\r\n    }\r\n\r\n\r\n    // Auxiliary Functions\r\n    function compareStrings (string memory a, string memory b) public pure returns (bool) {\r\n        return (keccak256(abi.encodePacked((a))) == keccak256(abi.encodePacked((b))));\r\n    }\r\n\r\n    function addressToString (address x) public pure returns (string memory) {\r\n        bytes32 value = bytes32(uint256(x));\r\n        bytes memory alphabet = \"0123456789abcdef\";\r\n\r\n        bytes memory str = new bytes(42);\r\n        str[0] = '0';\r\n        str[1] = 'x';\r\n        for (uint i = 0; i < 20; i++) {\r\n            str[2+i*2] = alphabet[uint(uint8(value[i + 12] >> 4))];\r\n            str[3+i*2] = alphabet[uint(uint8(value[i + 12] & 0x0f))];\r\n        }\r\n        return string(str);\r\n    }\r\n\r\n    function selectExpDurationMonth (uint _monthIndex) internal pure returns (Applicants.ExpDurationMonth) {\r\n        if (_monthIndex == 1) return Applicants.ExpDurationMonth.January;\r\n        if (_monthIndex == 2) return Applicants.ExpDurationMonth.February;\r\n        if (_monthIndex == 3) return Applicants.ExpDurationMonth.March;\r\n        if (_monthIndex == 4) return Applicants.ExpDurationMonth.April;\r\n        if (_monthIndex == 5) return Applicants.ExpDurationMonth.May;\r\n        if (_monthIndex == 6) return Applicants.ExpDurationMonth.June;\r\n        if (_monthIndex == 7) return Applicants.ExpDurationMonth.July;\r\n        if (_monthIndex == 8) return Applicants.ExpDurationMonth.August;\r\n        if (_monthIndex == 9) return Applicants.ExpDurationMonth.September;\r\n        if (_monthIndex == 10) return Applicants.ExpDurationMonth.October;\r\n        if (_monthIndex == 11) return Applicants.ExpDurationMonth.November;\r\n        if (_monthIndex == 12) return Applicants.ExpDurationMonth.December;\r\n        return Applicants.ExpDurationMonth.Zero;\r\n    }\r\n\r\n    function selectSkillLevel (uint _levelIndex) internal pure returns (Applicants.SkillLevel) {\r\n        if (_levelIndex == 1) return Applicants.SkillLevel.Beginner;\r\n        if (_levelIndex == 2) return Applicants.SkillLevel.Intermediate;\r\n        if (_levelIndex == 3) return Applicants.SkillLevel.Advanced;\r\n        return Applicants.SkillLevel.Default;\r\n    }\r\n\r\n    function createExpDurationStart (uint _year, uint _month) internal pure returns (Applicants.ExpDurationStart memory) {\r\n        return Applicants.ExpDurationStart(uint(_year), selectExpDurationMonth(_month));\r\n    }\r\n\r\n    function createExpDurationEnd (uint _year, uint _month, bool _present) internal pure returns (Applicants.ExpDurationEnd memory) {\r\n        return Applicants.ExpDurationEnd(uint(_year), selectExpDurationMonth(_month), _present);\r\n    }\r\n\r\n    function createStipend (string memory _currency, uint _amount) internal pure returns (Applicants.Stipend memory){\r\n        return Applicants.Stipend(_currency, _amount);\r\n    }\r\n}",
  "sourcePath": "/mnt/c/digitalMe/contracts/Applicants.sol",
  "compiler": {
    "name": "solc",
    "version": "0.5.16+commit.9c3226ce.Emscripten.clang"
  },
  "schemaVersion": "3.2.0",
  "updatedAt": "2020-06-24T06:14:17.664Z",
  "devdoc": {
    "methods": {}
  },
  "userdoc": {
    "methods": {}
  }
}